{
  "_format": "hh-sol-artifact-1",
  "contractName": "AllTourist",
  "sourceName": "contracts/TouristIDRegistration.sol",
  "abi": [
    {
      "anonymous": false,
      "inputs": [
        {
          "indexed": true,
          "internalType": "address",
          "name": "Touristaddress",
          "type": "address"
        },
        {
          "indexed": false,
          "internalType": "string",
          "name": "name",
          "type": "string"
        },
        {
          "indexed": false,
          "internalType": "bytes32",
          "name": "Passhash",
          "type": "bytes32"
        },
        {
          "indexed": false,
          "internalType": "bytes32",
          "name": "ownphno",
          "type": "bytes32"
        },
        {
          "indexed": false,
          "internalType": "bytes32",
          "name": "famiphno",
          "type": "bytes32"
        },
        {
          "indexed": false,
          "internalType": "string",
          "name": "tripstart",
          "type": "string"
        },
        {
          "indexed": false,
          "internalType": "string",
          "name": "tripend",
          "type": "string"
        }
      ],
      "name": "SaveTourist",
      "type": "event"
    },
    {
      "inputs": [
        {
          "internalType": "uint256",
          "name": "",
          "type": "uint256"
        }
      ],
      "name": "TouristAlladdress",
      "outputs": [
        {
          "internalType": "address",
          "name": "",
          "type": "address"
        }
      ],
      "stateMutability": "view",
      "type": "function"
    },
    {
      "inputs": [
        {
          "internalType": "string",
          "name": "name",
          "type": "string"
        },
        {
          "internalType": "bytes32",
          "name": "Passhash",
          "type": "bytes32"
        },
        {
          "internalType": "bytes32",
          "name": "ownphno",
          "type": "bytes32"
        },
        {
          "internalType": "bytes32",
          "name": "famiphno",
          "type": "bytes32"
        },
        {
          "internalType": "string",
          "name": "tripstart",
          "type": "string"
        },
        {
          "internalType": "string",
          "name": "tripend",
          "type": "string"
        }
      ],
      "name": "TouristIDRegistration",
      "outputs": [],
      "stateMutability": "nonpayable",
      "type": "function"
    }
  ],
  "bytecode": "0x6080604052348015600f57600080fd5b506110a68061001f6000396000f3fe608060405234801561001057600080fd5b50600436106100365760003560e01c80633f1e36a71461003b57806343b6512a14610057575b600080fd5b61005560048036038101906100509190610369565b610087565b005b610071600480360381019061006c9190610480565b61018d565b60405161007e91906104ee565b60405180910390f35b600086868686868660405161009b906101cc565b6100aa96959493929190610597565b604051809103906000f0801580156100c6573d6000803e3d6000fd5b5090506000819080600181540180825580915050600190039060005260206000200160009091909190916101000a81548173ffffffffffffffffffffffffffffffffffffffff021916908373ffffffffffffffffffffffffffffffffffffffff1602179055508073ffffffffffffffffffffffffffffffffffffffff167f44f27148feb1bc2912566e7bbb158c4d2870d1b09ee2acc2517951f06804b23e88888888888860405161017c96959493929190610597565b60405180910390a250505050505050565b6000818154811061019d57600080fd5b906000526020600020016000915054906101000a900473ffffffffffffffffffffffffffffffffffffffff1681565b610a638061060e83390190565b6000604051905090565b600080fd5b600080fd5b600080fd5b600080fd5b6000601f19601f8301169050919050565b7f4e487b7100000000000000000000000000000000000000000000000000000000600052604160045260246000fd5b610240826101f7565b810181811067ffffffffffffffff8211171561025f5761025e610208565b5b80604052505050565b60006102726101d9565b905061027e8282610237565b919050565b600067ffffffffffffffff82111561029e5761029d610208565b5b6102a7826101f7565b9050602081019050919050565b82818337600083830152505050565b60006102d66102d184610283565b610268565b9050828152602081018484840111156102f2576102f16101f2565b5b6102fd8482856102b4565b509392505050565b600082601f83011261031a576103196101ed565b5b813561032a8482602086016102c3565b91505092915050565b6000819050919050565b61034681610333565b811461035157600080fd5b50565b6000813590506103638161033d565b92915050565b60008060008060008060c08789031215610386576103856101e3565b5b600087013567ffffffffffffffff8111156103a4576103a36101e8565b5b6103b089828a01610305565b96505060206103c189828a01610354565b95505060406103d289828a01610354565b94505060606103e389828a01610354565b935050608087013567ffffffffffffffff811115610404576104036101e8565b5b61041089828a01610305565b92505060a087013567ffffffffffffffff811115610431576104306101e8565b5b61043d89828a01610305565b9150509295509295509295565b6000819050919050565b61045d8161044a565b811461046857600080fd5b50565b60008135905061047a81610454565b92915050565b600060208284031215610496576104956101e3565b5b60006104a48482850161046b565b91505092915050565b600073ffffffffffffffffffffffffffffffffffffffff82169050919050565b60006104d8826104ad565b9050919050565b6104e8816104cd565b82525050565b600060208201905061050360008301846104df565b92915050565b600081519050919050565b600082825260208201905092915050565b60005b83811015610543578082015181840152602081019050610528565b60008484015250505050565b600061055a82610509565b6105648185610514565b9350610574818560208601610525565b61057d816101f7565b840191505092915050565b61059181610333565b82525050565b600060c08201905081810360008301526105b1818961054f565b90506105c06020830188610588565b6105cd6040830187610588565b6105da6060830186610588565b81810360808301526105ec818561054f565b905081810360a0830152610600818461054f565b905097965050505050505056fe608060405234801561001057600080fd5b50604051610a63380380610a638339818101604052810190610032919061022d565b8560009081610041919061052f565b508460018190555083600281905550826003819055508160049081610066919061052f565b508060059081610076919061052f565b50505050505050610601565b6000604051905090565b600080fd5b600080fd5b600080fd5b600080fd5b6000601f19601f8301169050919050565b7f4e487b7100000000000000000000000000000000000000000000000000000000600052604160045260246000fd5b6100e9826100a0565b810181811067ffffffffffffffff82111715610108576101076100b1565b5b80604052505050565b600061011b610082565b905061012782826100e0565b919050565b600067ffffffffffffffff821115610147576101466100b1565b5b610150826100a0565b9050602081019050919050565b60005b8381101561017b578082015181840152602081019050610160565b60008484015250505050565b600061019a6101958461012c565b610111565b9050828152602081018484840111156101b6576101b561009b565b5b6101c184828561015d565b509392505050565b600082601f8301126101de576101dd610096565b5b81516101ee848260208601610187565b91505092915050565b6000819050919050565b61020a816101f7565b811461021557600080fd5b50565b60008151905061022781610201565b92915050565b60008060008060008060c0878903121561024a5761024961008c565b5b600087015167ffffffffffffffff81111561026857610267610091565b5b61027489828a016101c9565b965050602061028589828a01610218565b955050604061029689828a01610218565b94505060606102a789828a01610218565b935050608087015167ffffffffffffffff8111156102c8576102c7610091565b5b6102d489828a016101c9565b92505060a087015167ffffffffffffffff8111156102f5576102f4610091565b5b61030189828a016101c9565b9150509295509295509295565b600081519050919050565b7f4e487b7100000000000000000000000000000000000000000000000000000000600052602260045260246000fd5b6000600282049050600182168061036057607f821691505b60208210810361037357610372610319565b5b50919050565b60008190508160005260206000209050919050565b60006020601f8301049050919050565b600082821b905092915050565b6000600883026103db7fffffffffffffffffffffffffffffffffffffffffffffffffffffffffffffffff8261039e565b6103e5868361039e565b95508019841693508086168417925050509392505050565b6000819050919050565b6000819050919050565b600061042c610427610422846103fd565b610407565b6103fd565b9050919050565b6000819050919050565b61044683610411565b61045a61045282610433565b8484546103ab565b825550505050565b600090565b61046f610462565b61047a81848461043d565b505050565b5b8181101561049e57610493600082610467565b600181019050610480565b5050565b601f8211156104e3576104b481610379565b6104bd8461038e565b810160208510156104cc578190505b6104e06104d88561038e565b83018261047f565b50505b505050565b600082821c905092915050565b6000610506600019846008026104e8565b1980831691505092915050565b600061051f83836104f5565b9150826002028217905092915050565b6105388261030e565b67ffffffffffffffff811115610551576105506100b1565b5b61055b8254610348565b6105668282856104a2565b600060209050601f8311600181146105995760008415610587578287015190505b6105918582610513565b8655506105f9565b601f1984166105a786610379565b60005b828110156105cf578489015182556001820191506020850194506020810190506105aa565b868310156105ec57848901516105e8601f8916826104f5565b8355505b6001600288020188555050505b505050505050565b610453806106106000396000f3fe608060405234801561001057600080fd5b50600436106100625760003560e01c806306fdde03146100675780632c52fdc7146100855780632d371892146100a3578063381005a3146100c157806368100bc3146100df578063e82077e0146100fd575b600080fd5b61006f61011b565b60405161007c9190610367565b60405180910390f35b61008d6101a9565b60405161009a91906103a2565b60405180910390f35b6100ab6101af565b6040516100b891906103a2565b60405180910390f35b6100c96101b5565b6040516100d691906103a2565b60405180910390f35b6100e76101bb565b6040516100f49190610367565b60405180910390f35b610105610249565b6040516101129190610367565b60405180910390f35b60008054610128906103ec565b80601f0160208091040260200160405190810160405280929190818152602001828054610154906103ec565b80156101a15780601f10610176576101008083540402835291602001916101a1565b820191906000526020600020905b81548152906001019060200180831161018457829003601f168201915b505050505081565b60015481565b60035481565b60025481565b600580546101c8906103ec565b80601f01602080910402602001604051908101604052809291908181526020018280546101f4906103ec565b80156102415780601f1061021657610100808354040283529160200191610241565b820191906000526020600020905b81548152906001019060200180831161022457829003601f168201915b505050505081565b60048054610256906103ec565b80601f0160208091040260200160405190810160405280929190818152602001828054610282906103ec565b80156102cf5780601f106102a4576101008083540402835291602001916102cf565b820191906000526020600020905b8154815290600101906020018083116102b257829003601f168201915b505050505081565b600081519050919050565b600082825260208201905092915050565b60005b838110156103115780820151818401526020810190506102f6565b60008484015250505050565b6000601f19601f8301169050919050565b6000610339826102d7565b61034381856102e2565b93506103538185602086016102f3565b61035c8161031d565b840191505092915050565b60006020820190508181036000830152610381818461032e565b905092915050565b6000819050919050565b61039c81610389565b82525050565b60006020820190506103b76000830184610393565b92915050565b7f4e487b7100000000000000000000000000000000000000000000000000000000600052602260045260246000fd5b6000600282049050600182168061040457607f821691505b602082108103610417576104166103bd565b5b5091905056fea26469706673582212205da471bfb757a84fa6b2f2b16c6929a9c6e728ff43e80b7b52e5347fa3d7ba7464736f6c634300081c0033a264697066735822122097354e01d80750930659359f187d3d9fe716e46f7d6d6ac85429cd2d2e27c19464736f6c634300081c0033",
  "linkReferences": {},
  "deployedLinkReferences": {}
}