{
  "_format": "hh-sol-artifact-1",
  "contractName": "Tourist",
  "sourceName": "contracts/TouristIDRegistration.sol",
  "abi": [
    {
      "inputs": [
        {
          "internalType": "string",
          "name": "_name",
          "type": "string"
        },
        {
          "internalType": "bytes32",
          "name": "_Passhash",
          "type": "bytes32"
        },
        {
          "internalType": "bytes32",
          "name": "_ownphno",
          "type": "bytes32"
        },
        {
          "internalType": "bytes32",
          "name": "_famiphno",
          "type": "bytes32"
        },
        {
          "internalType": "string",
          "name": "_tripstart",
          "type": "string"
        },
        {
          "internalType": "string",
          "name": "_tripend",
          "type": "string"
        }
      ],
      "stateMutability": "nonpayable",
      "type": "constructor"
    },
    {
      "inputs": [],
      "name": "Passhash",
      "outputs": [
        {
          "internalType": "bytes32",
          "name": "",
          "type": "bytes32"
        }
      ],
      "stateMutability": "view",
      "type": "function"
    },
    {
      "inputs": [],
      "name": "famiphno",
      "outputs": [
        {
          "internalType": "bytes32",
          "name": "",
          "type": "bytes32"
        }
      ],
      "stateMutability": "view",
      "type": "function"
    },
    {
      "inputs": [],
      "name": "name",
      "outputs": [
        {
          "internalType": "string",
          "name": "",
          "type": "string"
        }
      ],
      "stateMutability": "view",
      "type": "function"
    },
    {
      "inputs": [],
      "name": "ownphno",
      "outputs": [
        {
          "internalType": "bytes32",
          "name": "",
          "type": "bytes32"
        }
      ],
      "stateMutability": "view",
      "type": "function"
    },
    {
      "inputs": [],
      "name": "tripend",
      "outputs": [
        {
          "internalType": "string",
          "name": "",
          "type": "string"
        }
      ],
      "stateMutability": "view",
      "type": "function"
    },
    {
      "inputs": [],
      "name": "tripstart",
      "outputs": [
        {
          "internalType": "string",
          "name": "",
          "type": "string"
        }
      ],
      "stateMutability": "view",
      "type": "function"
    }
  ],
  "bytecode": "0x608060405234801561001057600080fd5b50604051610a63380380610a638339818101604052810190610032919061022d565b8560009081610041919061052f565b508460018190555083600281905550826003819055508160049081610066919061052f565b508060059081610076919061052f565b50505050505050610601565b6000604051905090565b600080fd5b600080fd5b600080fd5b600080fd5b6000601f19601f8301169050919050565b7f4e487b7100000000000000000000000000000000000000000000000000000000600052604160045260246000fd5b6100e9826100a0565b810181811067ffffffffffffffff82111715610108576101076100b1565b5b80604052505050565b600061011b610082565b905061012782826100e0565b919050565b600067ffffffffffffffff821115610147576101466100b1565b5b610150826100a0565b9050602081019050919050565b60005b8381101561017b578082015181840152602081019050610160565b60008484015250505050565b600061019a6101958461012c565b610111565b9050828152602081018484840111156101b6576101b561009b565b5b6101c184828561015d565b509392505050565b600082601f8301126101de576101dd610096565b5b81516101ee848260208601610187565b91505092915050565b6000819050919050565b61020a816101f7565b811461021557600080fd5b50565b60008151905061022781610201565b92915050565b60008060008060008060c0878903121561024a5761024961008c565b5b600087015167ffffffffffffffff81111561026857610267610091565b5b61027489828a016101c9565b965050602061028589828a01610218565b955050604061029689828a01610218565b94505060606102a789828a01610218565b935050608087015167ffffffffffffffff8111156102c8576102c7610091565b5b6102d489828a016101c9565b92505060a087015167ffffffffffffffff8111156102f5576102f4610091565b5b61030189828a016101c9565b9150509295509295509295565b600081519050919050565b7f4e487b7100000000000000000000000000000000000000000000000000000000600052602260045260246000fd5b6000600282049050600182168061036057607f821691505b60208210810361037357610372610319565b5b50919050565b60008190508160005260206000209050919050565b60006020601f8301049050919050565b600082821b905092915050565b6000600883026103db7fffffffffffffffffffffffffffffffffffffffffffffffffffffffffffffffff8261039e565b6103e5868361039e565b95508019841693508086168417925050509392505050565b6000819050919050565b6000819050919050565b600061042c610427610422846103fd565b610407565b6103fd565b9050919050565b6000819050919050565b61044683610411565b61045a61045282610433565b8484546103ab565b825550505050565b600090565b61046f610462565b61047a81848461043d565b505050565b5b8181101561049e57610493600082610467565b600181019050610480565b5050565b601f8211156104e3576104b481610379565b6104bd8461038e565b810160208510156104cc578190505b6104e06104d88561038e565b83018261047f565b50505b505050565b600082821c905092915050565b6000610506600019846008026104e8565b1980831691505092915050565b600061051f83836104f5565b9150826002028217905092915050565b6105388261030e565b67ffffffffffffffff811115610551576105506100b1565b5b61055b8254610348565b6105668282856104a2565b600060209050601f8311600181146105995760008415610587578287015190505b6105918582610513565b8655506105f9565b601f1984166105a786610379565b60005b828110156105cf578489015182556001820191506020850194506020810190506105aa565b868310156105ec57848901516105e8601f8916826104f5565b8355505b6001600288020188555050505b505050505050565b610453806106106000396000f3fe608060405234801561001057600080fd5b50600436106100625760003560e01c806306fdde03146100675780632c52fdc7146100855780632d371892146100a3578063381005a3146100c157806368100bc3146100df578063e82077e0146100fd575b600080fd5b61006f61011b565b60405161007c9190610367565b60405180910390f35b61008d6101a9565b60405161009a91906103a2565b60405180910390f35b6100ab6101af565b6040516100b891906103a2565b60405180910390f35b6100c96101b5565b6040516100d691906103a2565b60405180910390f35b6100e76101bb565b6040516100f49190610367565b60405180910390f35b610105610249565b6040516101129190610367565b60405180910390f35b60008054610128906103ec565b80601f0160208091040260200160405190810160405280929190818152602001828054610154906103ec565b80156101a15780601f10610176576101008083540402835291602001916101a1565b820191906000526020600020905b81548152906001019060200180831161018457829003601f168201915b505050505081565b60015481565b60035481565b60025481565b600580546101c8906103ec565b80601f01602080910402602001604051908101604052809291908181526020018280546101f4906103ec565b80156102415780601f1061021657610100808354040283529160200191610241565b820191906000526020600020905b81548152906001019060200180831161022457829003601f168201915b505050505081565b60048054610256906103ec565b80601f0160208091040260200160405190810160405280929190818152602001828054610282906103ec565b80156102cf5780601f106102a4576101008083540402835291602001916102cf565b820191906000526020600020905b8154815290600101906020018083116102b257829003601f168201915b505050505081565b600081519050919050565b600082825260208201905092915050565b60005b838110156103115780820151818401526020810190506102f6565b60008484015250505050565b6000601f19601f8301169050919050565b6000610339826102d7565b61034381856102e2565b93506103538185602086016102f3565b61035c8161031d565b840191505092915050565b60006020820190508181036000830152610381818461032e565b905092915050565b6000819050919050565b61039c81610389565b82525050565b60006020820190506103b76000830184610393565b92915050565b7f4e487b7100000000000000000000000000000000000000000000000000000000600052602260045260246000fd5b6000600282049050600182168061040457607f821691505b602082108103610417576104166103bd565b5b5091905056fea26469706673582212205da471bfb757a84fa6b2f2b16c6929a9c6e728ff43e80b7b52e5347fa3d7ba7464736f6c634300081c0033",
  "linkReferences": {},
  "deployedLinkReferences": {}
}